{
  "_format": "hh-sol-artifact-1",
  "contractName": "ERC7857iNFT",
  "sourceName": "contracts/ERC7857iNFT.sol",
  "abi": [
    {
      "inputs": [
        {
          "internalType": "address",
          "name": "_oracle",
          "type": "address"
        }
      ],
      "stateMutability": "nonpayable",
      "type": "constructor"
    },
    {
      "inputs": [
        {
          "internalType": "address",
          "name": "sender",
          "type": "address"
        },
        {
          "internalType": "uint256",
          "name": "tokenId",
          "type": "uint256"
        },
        {
          "internalType": "address",
          "name": "owner",
          "type": "address"
        }
      ],
      "name": "ERC721IncorrectOwner",
      "type": "error"
    },
    {
      "inputs": [
        {
          "internalType": "address",
          "name": "operator",
          "type": "address"
        },
        {
          "internalType": "uint256",
          "name": "tokenId",
          "type": "uint256"
        }
      ],
      "name": "ERC721InsufficientApproval",
      "type": "error"
    },
    {
      "inputs": [
        {
          "internalType": "address",
          "name": "approver",
          "type": "address"
        }
      ],
      "name": "ERC721InvalidApprover",
      "type": "error"
    },
    {
      "inputs": [
        {
          "internalType": "address",
          "name": "operator",
          "type": "address"
        }
      ],
      "name": "ERC721InvalidOperator",
      "type": "error"
    },
    {
      "inputs": [
        {
          "internalType": "address",
          "name": "owner",
          "type": "address"
        }
      ],
      "name": "ERC721InvalidOwner",
      "type": "error"
    },
    {
      "inputs": [
        {
          "internalType": "address",
          "name": "receiver",
          "type": "address"
        }
      ],
      "name": "ERC721InvalidReceiver",
      "type": "error"
    },
    {
      "inputs": [
        {
          "internalType": "address",
          "name": "sender",
          "type": "address"
        }
      ],
      "name": "ERC721InvalidSender",
      "type": "error"
    },
    {
      "inputs": [
        {
          "internalType": "uint256",
          "name": "tokenId",
          "type": "uint256"
        }
      ],
      "name": "ERC721NonexistentToken",
      "type": "error"
    },
    {
      "inputs": [
        {
          "internalType": "address",
          "name": "owner",
          "type": "address"
        }
      ],
      "name": "OwnableInvalidOwner",
      "type": "error"
    },
    {
      "inputs": [
        {
          "internalType": "address",
          "name": "account",
          "type": "address"
        }
      ],
      "name": "OwnableUnauthorizedAccount",
      "type": "error"
    },
    {
      "inputs": [],
      "name": "ReentrancyGuardReentrantCall",
      "type": "error"
    },
    {
      "anonymous": false,
      "inputs": [
        {
          "indexed": true,
          "internalType": "uint256",
          "name": "originalId",
          "type": "uint256"
        },
        {
          "indexed": true,
          "internalType": "uint256",
          "name": "newId",
          "type": "uint256"
        },
        {
          "indexed": false,
          "internalType": "address",
          "name": "to",
          "type": "address"
        }
      ],
      "name": "AgentCloned",
      "type": "event"
    },
    {
      "anonymous": false,
      "inputs": [
        {
          "indexed": true,
          "internalType": "address",
          "name": "owner",
          "type": "address"
        },
        {
          "indexed": true,
          "internalType": "address",
          "name": "approved",
          "type": "address"
        },
        {
          "indexed": true,
          "internalType": "uint256",
          "name": "tokenId",
          "type": "uint256"
        }
      ],
      "name": "Approval",
      "type": "event"
    },
    {
      "anonymous": false,
      "inputs": [
        {
          "indexed": true,
          "internalType": "address",
          "name": "owner",
          "type": "address"
        },
        {
          "indexed": true,
          "internalType": "address",
          "name": "operator",
          "type": "address"
        },
        {
          "indexed": false,
          "internalType": "bool",
          "name": "approved",
          "type": "bool"
        }
      ],
      "name": "ApprovalForAll",
      "type": "event"
    },
    {
      "anonymous": false,
      "inputs": [
        {
          "indexed": true,
          "internalType": "uint256",
          "name": "tokenId",
          "type": "uint256"
        },
        {
          "indexed": false,
          "internalType": "bytes32",
          "name": "newHash",
          "type": "bytes32"
        }
      ],
      "name": "MetadataUpdated",
      "type": "event"
    },
    {
      "anonymous": false,
      "inputs": [
        {
          "indexed": false,
          "internalType": "address",
          "name": "oldOracle",
          "type": "address"
        },
        {
          "indexed": false,
          "internalType": "address",
          "name": "newOracle",
          "type": "address"
        }
      ],
      "name": "OracleUpdated",
      "type": "event"
    },
    {
      "anonymous": false,
      "inputs": [
        {
          "indexed": true,
          "internalType": "address",
          "name": "previousOwner",
          "type": "address"
        },
        {
          "indexed": true,
          "internalType": "address",
          "name": "newOwner",
          "type": "address"
        }
      ],
      "name": "OwnershipTransferred",
      "type": "event"
    },
    {
      "anonymous": false,
      "inputs": [
        {
          "indexed": true,
          "internalType": "address",
          "name": "from",
          "type": "address"
        },
        {
          "indexed": true,
          "internalType": "address",
          "name": "to",
          "type": "address"
        },
        {
          "indexed": true,
          "internalType": "uint256",
          "name": "tokenId",
          "type": "uint256"
        }
      ],
      "name": "Transfer",
      "type": "event"
    },
    {
      "anonymous": false,
      "inputs": [
        {
          "indexed": true,
          "internalType": "uint256",
          "name": "tokenId",
          "type": "uint256"
        },
        {
          "indexed": true,
          "internalType": "address",
          "name": "executor",
          "type": "address"
        }
      ],
      "name": "UsageAuthorized",
      "type": "event"
    },
    {
      "inputs": [
        {
          "internalType": "address",
          "name": "to",
          "type": "address"
        },
        {
          "internalType": "uint256",
          "name": "tokenId",
          "type": "uint256"
        }
      ],
      "name": "approve",
      "outputs": [],
      "stateMutability": "nonpayable",
      "type": "function"
    },
    {
      "inputs": [
        {
          "internalType": "uint256",
          "name": "tokenId",
          "type": "uint256"
        },
        {
          "internalType": "address",
          "name": "executor",
          "type": "address"
        },
        {
          "internalType": "bytes",
          "name": "permissions",
          "type": "bytes"
        }
      ],
      "name": "authorizeUsage",
      "outputs": [],
      "stateMutability": "nonpayable",
      "type": "function"
    },
    {
      "inputs": [
        {
          "internalType": "address",
          "name": "owner",
          "type": "address"
        }
      ],
      "name": "balanceOf",
      "outputs": [
        {
          "internalType": "uint256",
          "name": "",
          "type": "uint256"
        }
      ],
      "stateMutability": "view",
      "type": "function"
    },
    {
      "inputs": [
        {
          "internalType": "address",
          "name": "to",
          "type": "address"
        },
        {
          "internalType": "uint256",
          "name": "tokenId",
          "type": "uint256"
        },
        {
          "internalType": "bytes",
          "name": "sealedKey",
          "type": "bytes"
        },
        {
          "internalType": "bytes",
          "name": "proof",
          "type": "bytes"
        }
      ],
      "name": "clone",
      "outputs": [
        {
          "internalType": "uint256",
          "name": "newTokenId",
          "type": "uint256"
        }
      ],
      "stateMutability": "nonpayable",
      "type": "function"
    },
    {
      "inputs": [
        {
          "internalType": "uint256",
          "name": "",
          "type": "uint256"
        }
      ],
      "name": "cloneable",
      "outputs": [
        {
          "internalType": "bool",
          "name": "",
          "type": "bool"
        }
      ],
      "stateMutability": "view",
      "type": "function"
    },
    {
      "inputs": [
        {
          "internalType": "uint256",
          "name": "tokenId",
          "type": "uint256"
        }
      ],
      "name": "getAgentMetadata",
      "outputs": [
        {
          "components": [
            {
              "internalType": "bytes32",
              "name": "metadataHash",
              "type": "bytes32"
            },
            {
              "internalType": "string",
              "name": "encryptedURI",
              "type": "string"
            },
            {
              "internalType": "uint256",
              "name": "lastUpdated",
              "type": "uint256"
            }
          ],
          "internalType": "struct IERC7857.AgentMetadata",
          "name": "",
          "type": "tuple"
        }
      ],
      "stateMutability": "view",
      "type": "function"
    },
    {
      "inputs": [
        {
          "internalType": "uint256",
          "name": "tokenId",
          "type": "uint256"
        }
      ],
      "name": "getApproved",
      "outputs": [
        {
          "internalType": "address",
          "name": "",
          "type": "address"
        }
      ],
      "stateMutability": "view",
      "type": "function"
    },
    {
      "inputs": [
        {
          "internalType": "uint256",
          "name": "tokenId",
          "type": "uint256"
        },
        {
          "internalType": "address",
          "name": "executor",
          "type": "address"
        }
      ],
      "name": "getAuthorization",
      "outputs": [
        {
          "internalType": "bytes",
          "name": "",
          "type": "bytes"
        }
      ],
      "stateMutability": "view",
      "type": "function"
    },
    {
      "inputs": [
        {
          "internalType": "address",
          "name": "owner",
          "type": "address"
        },
        {
          "internalType": "address",
          "name": "operator",
          "type": "address"
        }
      ],
      "name": "isApprovedForAll",
      "outputs": [
        {
          "internalType": "bool",
          "name": "",
          "type": "bool"
        }
      ],
      "stateMutability": "view",
      "type": "function"
    },
    {
      "inputs": [
        {
          "internalType": "uint256",
          "name": "tokenId",
          "type": "uint256"
        },
        {
          "internalType": "address",
          "name": "executor",
          "type": "address"
        }
      ],
      "name": "isAuthorizedExecutor",
      "outputs": [
        {
          "internalType": "bool",
          "name": "",
          "type": "bool"
        }
      ],
      "stateMutability": "view",
      "type": "function"
    },
    {
      "inputs": [
        {
          "internalType": "address",
          "name": "to",
          "type": "address"
        },
        {
          "internalType": "bytes32",
          "name": "metadataHash",
          "type": "bytes32"
        },
        {
          "internalType": "string",
          "name": "encryptedURI",
          "type": "string"
        },
        {
          "internalType": "address",
          "name": "initialExecutor",
          "type": "address"
        }
      ],
      "name": "mintAgent",
      "outputs": [
        {
          "internalType": "uint256",
          "name": "tokenId",
          "type": "uint256"
        }
      ],
      "stateMutability": "nonpayable",
      "type": "function"
    },
    {
      "inputs": [],
      "name": "name",
      "outputs": [
        {
          "internalType": "string",
          "name": "",
          "type": "string"
        }
      ],
      "stateMutability": "view",
      "type": "function"
    },
    {
      "inputs": [],
      "name": "oracle",
      "outputs": [
        {
          "internalType": "address",
          "name": "",
          "type": "address"
        }
      ],
      "stateMutability": "view",
      "type": "function"
    },
    {
      "inputs": [],
      "name": "owner",
      "outputs": [
        {
          "internalType": "address",
          "name": "",
          "type": "address"
        }
      ],
      "stateMutability": "view",
      "type": "function"
    },
    {
      "inputs": [
        {
          "internalType": "uint256",
          "name": "tokenId",
          "type": "uint256"
        }
      ],
      "name": "ownerOf",
      "outputs": [
        {
          "internalType": "address",
          "name": "",
          "type": "address"
        }
      ],
      "stateMutability": "view",
      "type": "function"
    },
    {
      "inputs": [],
      "name": "renounceOwnership",
      "outputs": [],
      "stateMutability": "nonpayable",
      "type": "function"
    },
    {
      "inputs": [
        {
          "internalType": "uint256",
          "name": "tokenId",
          "type": "uint256"
        },
        {
          "internalType": "address",
          "name": "executor",
          "type": "address"
        }
      ],
      "name": "revokeUsage",
      "outputs": [],
      "stateMutability": "nonpayable",
      "type": "function"
    },
    {
      "inputs": [
        {
          "internalType": "address",
          "name": "from",
          "type": "address"
        },
        {
          "internalType": "address",
          "name": "to",
          "type": "address"
        },
        {
          "internalType": "uint256",
          "name": "tokenId",
          "type": "uint256"
        }
      ],
      "name": "safeTransferFrom",
      "outputs": [],
      "stateMutability": "nonpayable",
      "type": "function"
    },
    {
      "inputs": [
        {
          "internalType": "address",
          "name": "from",
          "type": "address"
        },
        {
          "internalType": "address",
          "name": "to",
          "type": "address"
        },
        {
          "internalType": "uint256",
          "name": "tokenId",
          "type": "uint256"
        },
        {
          "internalType": "bytes",
          "name": "data",
          "type": "bytes"
        }
      ],
      "name": "safeTransferFrom",
      "outputs": [],
      "stateMutability": "nonpayable",
      "type": "function"
    },
    {
      "inputs": [
        {
          "internalType": "address",
          "name": "from",
          "type": "address"
        },
        {
          "internalType": "address",
          "name": "to",
          "type": "address"
        },
        {
          "internalType": "uint256",
          "name": "tokenId",
          "type": "uint256"
        },
        {
          "internalType": "bytes",
          "name": "sealedKey",
          "type": "bytes"
        },
        {
          "internalType": "bytes",
          "name": "proof",
          "type": "bytes"
        }
      ],
      "name": "secureTransfer",
      "outputs": [],
      "stateMutability": "nonpayable",
      "type": "function"
    },
    {
      "inputs": [
        {
          "internalType": "address",
          "name": "operator",
          "type": "address"
        },
        {
          "internalType": "bool",
          "name": "approved",
          "type": "bool"
        }
      ],
      "name": "setApprovalForAll",
      "outputs": [],
      "stateMutability": "nonpayable",
      "type": "function"
    },
    {
      "inputs": [
        {
          "internalType": "uint256",
          "name": "tokenId",
          "type": "uint256"
        },
        {
          "internalType": "bool",
          "name": "enabled",
          "type": "bool"
        }
      ],
      "name": "setCloneable",
      "outputs": [],
      "stateMutability": "nonpayable",
      "type": "function"
    },
    {
      "inputs": [
        {
          "internalType": "address",
          "name": "_oracle",
          "type": "address"
        }
      ],
      "name": "setOracle",
      "outputs": [],
      "stateMutability": "nonpayable",
      "type": "function"
    },
    {
      "inputs": [
        {
          "internalType": "bytes4",
          "name": "interfaceId",
          "type": "bytes4"
        }
      ],
      "name": "supportsInterface",
      "outputs": [
        {
          "internalType": "bool",
          "name": "",
          "type": "bool"
        }
      ],
      "stateMutability": "view",
      "type": "function"
    },
    {
      "inputs": [],
      "name": "symbol",
      "outputs": [
        {
          "internalType": "string",
          "name": "",
          "type": "string"
        }
      ],
      "stateMutability": "view",
      "type": "function"
    },
    {
      "inputs": [
        {
          "internalType": "uint256",
          "name": "tokenId",
          "type": "uint256"
        }
      ],
      "name": "tokenURI",
      "outputs": [
        {
          "internalType": "string",
          "name": "",
          "type": "string"
        }
      ],
      "stateMutability": "view",
      "type": "function"
    },
    {
      "inputs": [
        {
          "internalType": "address",
          "name": "from",
          "type": "address"
        },
        {
          "internalType": "address",
          "name": "to",
          "type": "address"
        },
        {
          "internalType": "uint256",
          "name": "tokenId",
          "type": "uint256"
        }
      ],
      "name": "transferFrom",
      "outputs": [],
      "stateMutability": "nonpayable",
      "type": "function"
    },
    {
      "inputs": [
        {
          "internalType": "address",
          "name": "newOwner",
          "type": "address"
        }
      ],
      "name": "transferOwnership",
      "outputs": [],
      "stateMutability": "nonpayable",
      "type": "function"
    },
    {
      "inputs": [
        {
          "internalType": "uint256",
          "name": "tokenId",
          "type": "uint256"
        },
        {
          "internalType": "bytes32",
          "name": "newHash",
          "type": "bytes32"
        },
        {
          "internalType": "string",
          "name": "newEncryptedURI",
          "type": "string"
        }
      ],
      "name": "updateMetadata",
      "outputs": [],
      "stateMutability": "nonpayable",
      "type": "function"
    }
  ],
  "bytecode": "0x608060405234801562000010575f80fd5b50604051620027f1380380620027f183398101604081905262000033916200016e565b336040518060400160405280600c81526020016b11585c9b9b1858881a53919560a21b81525060405180604001604052806005815260200164115253919560da1b815250815f90816200008791906200023b565b5060016200009682826200023b565b5050506001600160a01b038116620000c757604051631e4fbdf760e01b81525f600482015260240160405180910390fd5b620000d2816200011d565b5060017f9b779b17422d0df92223018b32b4d1fa46e071723d6817e2486d003becc55f0055600880546001600160a01b0319166001600160a01b039290921691909117905562000307565b600680546001600160a01b038381166001600160a01b0319831681179093556040519116919082907f8be0079c531659141344cd1fd0a4f28419497f9722a3daafe3b4186f6b6457e0905f90a35050565b5f602082840312156200017f575f80fd5b81516001600160a01b038116811462000196575f80fd5b9392505050565b634e487b7160e01b5f52604160045260245ffd5b600181811c90821680620001c657607f821691505b602082108103620001e557634e487b7160e01b5f52602260045260245ffd5b50919050565b601f8211156200023657805f5260205f20601f840160051c81016020851015620002125750805b601f840160051c820191505b8181101562000233575f81556001016200021e565b50505b505050565b81516001600160401b038111156200025757620002576200019d565b6200026f81620002688454620001b1565b84620001eb565b602080601f831160018114620002a5575f84156200028d5750858301515b5f19600386901b1c1916600185901b178555620002ff565b5f85815260208120601f198616915b82811015620002d557888601518255948401946001909101908401620002b4565b5085821015620002f357878501515f19600388901b60f8161c191681555b505060018460011b0185555b505050505050565b6124dc80620003155f395ff3fe608060405234801561000f575f80fd5b50600436106101c5575f3560e01c80637b297a6f116100fe578063b88d4fde1161009e578063ca14bee71161006e578063ca14bee7146103e7578063e985e9c5146103fa578063f2fde38b1461040d578063f4e29f1514610420575f80fd5b8063b88d4fde1461039b578063c293f933146103ae578063c3ebdc52146103c1578063c87b56dd146103d4575f80fd5b806395d89b41116100d957806395d89b411461034b578063a22cb46514610353578063aec3616f14610366578063af7b3a8214610379575f80fd5b80637b297a6f146103145780637dc0d1d0146103275780638da5cb5b1461033a575f80fd5b806342842e0e116101695780636352211e116101445780636352211e146102c557806370a08231146102d8578063715018a6146102f95780637adbf97314610301575f80fd5b806342842e0e1461027f57806357d89af01461029257806359295330146102a5575f80fd5b8063081812fc116101a4578063081812fc1461021b578063095ea7b3146102465780631d0464651461025957806323b872dd1461026c575f80fd5b8062eeec9b146101c957806301ffc9a7146101de57806306fdde0314610206575b5f80fd5b6101dc6101d7366004611bf7565b610433565b005b6101f16101ec366004611c3a565b61048d565b60405190151581526020015b60405180910390f35b61020e61049d565b6040516101fd9190611ca2565b61022e610229366004611cb4565b61052c565b6040516001600160a01b0390911681526020016101fd565b6101dc610254366004611ce6565b610553565b61020e610267366004611d0e565b610562565b6101dc61027a366004611d38565b610616565b6101dc61028d366004611d38565b61069f565b6101dc6102a0366004611d0e565b6106be565b6102b86102b3366004611cb4565b610719565b6040516101fd9190611d71565b61022e6102d3366004611cb4565b610804565b6102eb6102e6366004611dac565b61080e565b6040519081526020016101fd565b6101dc610853565b6101dc61030f366004611dac565b610866565b6101dc610322366004611e0a565b6108d7565b60085461022e906001600160a01b031681565b6006546001600160a01b031661022e565b61020e610971565b6101dc610361366004611e60565b610980565b6101dc610374366004611e8a565b61098b565b6101f1610387366004611cb4565b600b6020525f908152604090205460ff1681565b6101dc6103a9366004611f32565b610bc3565b6102eb6103bc366004612007565b610bdb565b6101f16103cf366004611d0e565b610d53565b61020e6103e2366004611cb4565b610d8d565b6102eb6103f5366004612071565b610dfe565b6101f16104083660046120f5565b611197565b6101dc61041b366004611dac565b6111c4565b6101dc61042e36600461211d565b611201565b813361043e82610804565b6001600160a01b03161461046d5760405162461bcd60e51b815260040161046490612154565b60405180910390fd5b505f918252600b6020526040909120805460ff1916911515919091179055565b5f610497826112f2565b92915050565b60605f80546104ab9061217d565b80601f01602080910402602001604051908101604052809291908181526020018280546104d79061217d565b80156105225780601f106104f957610100808354040283529160200191610522565b820191905f5260205f20905b81548152906001019060200180831161050557829003601f168201915b5050505050905090565b5f61053682611341565b505f828152600460205260409020546001600160a01b0316610497565b61055e828233611379565b5050565b5f828152600a602090815260408083206001600160a01b038516845290915290208054606091906105929061217d565b80601f01602080910402602001604051908101604052809291908181526020018280546105be9061217d565b80156106095780601f106105e057610100808354040283529160200191610609565b820191905f5260205f20905b8154815290600101906020018083116105ec57829003601f168201915b5050505050905092915050565b6001600160a01b03821661063f57604051633250574960e11b81525f6004820152602401610464565b5f61064b838333611386565b9050836001600160a01b0316816001600160a01b031614610699576040516364283d7b60e01b81526001600160a01b0380861660048301526024820184905282166044820152606401610464565b50505050565b6106b983838360405180602001604052805f815250610bc3565b505050565b81336106c982610804565b6001600160a01b0316146106ef5760405162461bcd60e51b815260040161046490612154565b5f838152600a602090815260408083206001600160a01b038616845290915281206106b991611ba0565b61073e60405180606001604052805f8019168152602001606081526020015f81525090565b60095f8381526020019081526020015f206040518060600160405290815f82015481526020016001820180546107739061217d565b80601f016020809104026020016040519081016040528092919081815260200182805461079f9061217d565b80156107ea5780601f106107c1576101008083540402835291602001916107ea565b820191905f5260205f20905b8154815290600101906020018083116107cd57829003601f168201915b505050505081526020016002820154815250509050919050565b5f61049782611341565b5f6001600160a01b038216610838576040516322718ad960e21b81525f6004820152602401610464565b506001600160a01b03165f9081526003602052604090205490565b61085b611478565b6108645f6114a5565b565b61086e611478565b600854604080516001600160a01b03928316815291831660208301527f078c3b417dadf69374a59793b829c52001247130433427049317bde56607b1b7910160405180910390a1600880546001600160a01b0319166001600160a01b0392909216919091179055565b83336108e282610804565b6001600160a01b0316146109085760405162461bcd60e51b815260040161046490612154565b5f858152600a602090815260408083206001600160a01b038816845290915290206109348385836121f9565b506040516001600160a01b0385169086907f6b759ed2b6cfe980ab7df296b16f139dd2d334802653e3a3d396153450b9cff1905f90a35050505050565b6060600180546104ab9061217d565b61055e3383836114f6565b6109936115bd565b600854829082906001600160a01b03166109e75760405162461bcd60e51b815260206004820152601560248201527413dc9858db19481b9bdd0818dbdb999a59dd5c9959605a1b6044820152606401610464565b600854604051632ae132ff60e11b81526001600160a01b03909116906355c265fe90610a1990859085906004016122b3565b602060405180830381865afa158015610a34573d5f803e3d5ffd5b505050506040513d601f19601f82011682018060405250810190610a5891906122e1565b610a9b5760405162461bcd60e51b815260206004820152601460248201527324b73b30b634b21037b930b1b63290383937b7b360611b6044820152606401610464565b886001600160a01b0316610aae88610804565b6001600160a01b031614610af05760405162461bcd60e51b81526020600482015260096024820152682737ba1037bbb732b960b91b6044820152606401610464565b6001600160a01b038816610b3a5760405162461bcd60e51b8152602060048201526011602482015270125b9d985b1a59081c9958da5c1a595b9d607a1b6044820152606401610464565b5f8686604051610b4b9291906122fc565b60408051918290039091205f8a8152600960205291909120818155426002909101559050610b7a8a8a8a6115d8565b875f8051602061248783398151915282604051610b9991815260200190565b60405180910390a2505050610bba60015f8051602061246783398151915255565b50505050505050565b610bce848484610616565b6106993385858585611685565b600780545f9182610beb8361230b565b919050559050610bfb86826117ad565b604051806060016040528086815260200185858080601f0160208091040260200160405190810160405280939291908181526020018383808284375f92018290525093855250504260209384015250838152600982526040902082518155908201516001820190610c6c908261232f565b50604091909101516002909101556001600160a01b03821615610d2357604051602001610cb4906020808252600790820152666578656375746560c81b604082015260600190565b60408051601f198184030181529181525f838152600a60209081528282206001600160a01b038716835290522090610cec908261232f565b506040516001600160a01b0383169082907f6b759ed2b6cfe980ab7df296b16f139dd2d334802653e3a3d396153450b9cff1905f90a35b805f8051602061248783398151915286604051610d4291815260200190565b60405180910390a295945050505050565b5f828152600a602090815260408083206001600160a01b038516845290915281208054829190610d829061217d565b905011905092915050565b6060610d9882611341565b505f610dae60408051602081019091525f815290565b90505f815111610dcc5760405180602001604052805f815250610df7565b80610dd6846117c6565b604051602001610de79291906123eb565b6040516020818303038152906040525b9392505050565b5f610e076115bd565b600854839083906001600160a01b0316610e5b5760405162461bcd60e51b815260206004820152601560248201527413dc9858db19481b9bdd0818dbdb999a59dd5c9959605a1b6044820152606401610464565b600854604051632ae132ff60e11b81526001600160a01b03909116906355c265fe90610e8d90859085906004016122b3565b602060405180830381865afa158015610ea8573d5f803e3d5ffd5b505050506040513d601f19601f82011682018060405250810190610ecc91906122e1565b610f0f5760405162461bcd60e51b815260206004820152601460248201527324b73b30b634b21037b930b1b63290383937b7b360611b6044820152606401610464565b5f888152600b602052604090205460ff16610f625760405162461bcd60e51b81526020600482015260136024820152724167656e74206e6f7420636c6f6e6561626c6560681b6044820152606401610464565b33610f6c89610804565b6001600160a01b03161480610fa357505f888152600a6020908152604080832033845290915281208054610f9f9061217d565b9050115b610fef5760405162461bcd60e51b815260206004820152601760248201527f4e6f7420617574686f72697a656420746f20636c6f6e650000000000000000006044820152606401610464565b60078054905f610ffe8361230b565b91905055925061100e89846117ad565b5f878760405161101f9291906122fc565b60405180910390209050604051806060016040528082815260200160095f8c81526020019081526020015f2060010180546110599061217d565b80601f01602080910402602001604051908101604052809291908181526020018280546110859061217d565b80156110d05780601f106110a7576101008083540402835291602001916110d0565b820191905f5260205f20905b8154815290600101906020018083116110b357829003601f168201915b5050509183525050426020918201525f868152600982526040902082518155908201516001820190611102908261232f565b50604091820151600290910155516001600160a01b038b16815284908a907fafcb997b9dbf5ea2fdb1c69190293b8b3ad9fc98b62f467832a4a7bf050fc79d9060200160405180910390a3835f805160206124878339815191528260405161116c91815260200190565b60405180910390a250505061118d60015f8051602061246783398151915255565b9695505050505050565b6001600160a01b039182165f90815260056020908152604080832093909416825291909152205460ff1690565b6111cc611478565b6001600160a01b0381166111f557604051631e4fbdf760e01b81525f6004820152602401610464565b6111fe816114a5565b50565b833361120c82610804565b6001600160a01b0316148061124357505f818152600a602090815260408083203384529091528120805461123f9061217d565b9050115b61128f5760405162461bcd60e51b815260206004820181905260248201527f4e6f74206f776e6572206f7220617574686f72697a6564206578656375746f726044820152606401610464565b5f8581526009602052604090208481556001016112ad8385836121f9565b505f8581526009602052604090819020426002909101555185905f80516020612487833981519152906112e39087815260200190565b60405180910390a25050505050565b5f6001600160e01b031982166380ac58cd60e01b148061132257506001600160e01b03198216635b5e139f60e01b145b8061049757506301ffc9a760e01b6001600160e01b0319831614610497565b5f818152600260205260408120546001600160a01b03168061049757604051637e27328960e01b815260048101849052602401610464565b6106b98383836001611856565b5f828152600260205260408120546001600160a01b03908116908316156113b2576113b281848661195a565b6001600160a01b038116156113ec576113cd5f855f80611856565b6001600160a01b0381165f90815260036020526040902080545f190190555b6001600160a01b0385161561141a576001600160a01b0385165f908152600360205260409020805460010190555b5f8481526002602052604080822080546001600160a01b0319166001600160a01b0389811691821790925591518793918516917fddf252ad1be2c89b69c2b068fc378daa952ba7f163c4a11628f55a4df523b3ef91a4949350505050565b6006546001600160a01b031633146108645760405163118cdaa760e01b8152336004820152602401610464565b600680546001600160a01b038381166001600160a01b0319831681179093556040519116919082907f8be0079c531659141344cd1fd0a4f28419497f9722a3daafe3b4186f6b6457e0905f90a35050565b6001600160a01b03831661151f5760405163a9fbf51f60e01b81525f6004820152602401610464565b6001600160a01b03821661155157604051630b61174360e31b81526001600160a01b0383166004820152602401610464565b6001600160a01b038381165f81815260056020908152604080832094871680845294825291829020805460ff191686151590811790915591519182527f17307eab39ab6107e8899845ad3d59bd9653f200f220920489ca2b5937696c31910160405180910390a3505050565b6115c56119be565b60025f8051602061246783398151915255565b6001600160a01b03821661160157604051633250574960e11b81525f6004820152602401610464565b5f61160d83835f611386565b90506001600160a01b03811661163957604051637e27328960e01b815260048101839052602401610464565b836001600160a01b0316816001600160a01b031614610699576040516364283d7b60e01b81526001600160a01b0380861660048301526024820184905282166044820152606401610464565b6001600160a01b0383163b156117a657604051630a85bd0160e11b81526001600160a01b0384169063150b7a02906116c7908890889087908790600401612419565b6020604051808303815f875af1925050508015611701575060408051601f3d908101601f191682019092526116fe9181019061244b565b60015b611768573d80801561172e576040519150601f19603f3d011682016040523d82523d5f602084013e611733565b606091505b5080515f0361176057604051633250574960e11b81526001600160a01b0385166004820152602401610464565b805160208201fd5b6001600160e01b03198116630a85bd0160e11b146117a457604051633250574960e11b81526001600160a01b0385166004820152602401610464565b505b5050505050565b61055e828260405180602001604052805f8152506119ed565b60605f6117d283611a04565b60010190505f8167ffffffffffffffff8111156117f1576117f1611f1e565b6040519080825280601f01601f19166020018201604052801561181b576020820181803683370190505b5090508181016020015b5f19016f181899199a1a9b1b9c1cb0b131b232b360811b600a86061a8153600a850494508461182557509392505050565b808061186a57506001600160a01b03821615155b1561192b575f61187984611341565b90506001600160a01b038316158015906118a55750826001600160a01b0316816001600160a01b031614155b80156118b857506118b68184611197565b155b156118e15760405163a9fbf51f60e01b81526001600160a01b0384166004820152602401610464565b81156119295783856001600160a01b0316826001600160a01b03167f8c5be1e5ebec7d5bd14f71427d1e84f3dd0314c0f7b2291e5b200ac8c7c3b92560405160405180910390a45b505b50505f90815260046020526040902080546001600160a01b0319166001600160a01b0392909216919091179055565b611965838383611adb565b6106b9576001600160a01b03831661199357604051637e27328960e01b815260048101829052602401610464565b60405163177e802f60e01b81526001600160a01b038316600482015260248101829052604401610464565b5f805160206124678339815191525460020361086457604051633ee5aeb560e01b815260040160405180910390fd5b6119f78383611b3f565b6106b9335f858585611685565b5f8072184f03e93ff9f4daa797ed6e38ed64bf6a1f0160401b8310611a425772184f03e93ff9f4daa797ed6e38ed64bf6a1f0160401b830492506040015b6d04ee2d6d415b85acef81000000008310611a6e576d04ee2d6d415b85acef8100000000830492506020015b662386f26fc100008310611a8c57662386f26fc10000830492506010015b6305f5e1008310611aa4576305f5e100830492506008015b6127108310611ab857612710830492506004015b60648310611aca576064830492506002015b600a83106104975760010192915050565b5f6001600160a01b03831615801590611b375750826001600160a01b0316846001600160a01b03161480611b145750611b148484611197565b80611b3757505f828152600460205260409020546001600160a01b038481169116145b949350505050565b6001600160a01b038216611b6857604051633250574960e11b81525f6004820152602401610464565b5f611b7483835f611386565b90506001600160a01b038116156106b9576040516339e3563760e11b81525f6004820152602401610464565b508054611bac9061217d565b5f825580601f10611bbb575050565b601f0160209004905f5260205f20908101906111fe91905b80821115611be6575f8155600101611bd3565b5090565b80151581146111fe575f80fd5b5f8060408385031215611c08575f80fd5b823591506020830135611c1a81611bea565b809150509250929050565b6001600160e01b0319811681146111fe575f80fd5b5f60208284031215611c4a575f80fd5b8135610df781611c25565b5f5b83811015611c6f578181015183820152602001611c57565b50505f910152565b5f8151808452611c8e816020860160208601611c55565b601f01601f19169290920160200192915050565b602081525f610df76020830184611c77565b5f60208284031215611cc4575f80fd5b5035919050565b80356001600160a01b0381168114611ce1575f80fd5b919050565b5f8060408385031215611cf7575f80fd5b611d0083611ccb565b946020939093013593505050565b5f8060408385031215611d1f575f80fd5b82359150611d2f60208401611ccb565b90509250929050565b5f805f60608486031215611d4a575f80fd5b611d5384611ccb565b9250611d6160208501611ccb565b9150604084013590509250925092565b60208152815160208201525f602083015160606040840152611d966080840182611c77565b9050604084015160608401528091505092915050565b5f60208284031215611dbc575f80fd5b610df782611ccb565b5f8083601f840112611dd5575f80fd5b50813567ffffffffffffffff811115611dec575f80fd5b602083019150836020828501011115611e03575f80fd5b9250929050565b5f805f8060608587031215611e1d575f80fd5b84359350611e2d60208601611ccb565b9250604085013567ffffffffffffffff811115611e48575f80fd5b611e5487828801611dc5565b95989497509550505050565b5f8060408385031215611e71575f80fd5b611e7a83611ccb565b91506020830135611c1a81611bea565b5f805f805f805f60a0888a031215611ea0575f80fd5b611ea988611ccb565b9650611eb760208901611ccb565b955060408801359450606088013567ffffffffffffffff80821115611eda575f80fd5b611ee68b838c01611dc5565b909650945060808a0135915080821115611efe575f80fd5b50611f0b8a828b01611dc5565b989b979a50959850939692959293505050565b634e487b7160e01b5f52604160045260245ffd5b5f805f8060808587031215611f45575f80fd5b611f4e85611ccb565b9350611f5c60208601611ccb565b925060408501359150606085013567ffffffffffffffff80821115611f7f575f80fd5b818701915087601f830112611f92575f80fd5b813581811115611fa457611fa4611f1e565b604051601f8201601f19908116603f01168101908382118183101715611fcc57611fcc611f1e565b816040528281528a6020848701011115611fe4575f80fd5b826020860160208301375f60208483010152809550505050505092959194509250565b5f805f805f6080868803121561201b575f80fd5b61202486611ccb565b945060208601359350604086013567ffffffffffffffff811115612046575f80fd5b61205288828901611dc5565b9094509250612065905060608701611ccb565b90509295509295909350565b5f805f805f8060808789031215612086575f80fd5b61208f87611ccb565b955060208701359450604087013567ffffffffffffffff808211156120b2575f80fd5b6120be8a838b01611dc5565b909650945060608901359150808211156120d6575f80fd5b506120e389828a01611dc5565b979a9699509497509295939492505050565b5f8060408385031215612106575f80fd5b61210f83611ccb565b9150611d2f60208401611ccb565b5f805f8060608587031215612130575f80fd5b8435935060208501359250604085013567ffffffffffffffff811115611e48575f80fd5b6020808252600f908201526e2737ba103a37b5b2b71037bbb732b960891b604082015260600190565b600181811c9082168061219157607f821691505b6020821081036121af57634e487b7160e01b5f52602260045260245ffd5b50919050565b601f8211156106b957805f5260205f20601f840160051c810160208510156121da5750805b601f840160051c820191505b818110156117a6575f81556001016121e6565b67ffffffffffffffff83111561221157612211611f1e565b6122258361221f835461217d565b836121b5565b5f601f841160018114612256575f851561223f5750838201355b5f19600387901b1c1916600186901b1783556117a6565b5f83815260208120601f198716915b828110156122855786850135825560209485019460019092019101612265565b50868210156122a1575f1960f88860031b161c19848701351681555b505060018560011b0183555050505050565b60208152816020820152818360408301375f818301604090810191909152601f909201601f19160101919050565b5f602082840312156122f1575f80fd5b8151610df781611bea565b818382375f9101908152919050565b5f6001820161232857634e487b7160e01b5f52601160045260245ffd5b5060010190565b815167ffffffffffffffff81111561234957612349611f1e565b61235d81612357845461217d565b846121b5565b602080601f831160018114612390575f84156123795750858301515b5f19600386901b1c1916600185901b1785556117a4565b5f85815260208120601f198616915b828110156123be5788860151825594840194600190910190840161239f565b50858210156123db57878501515f19600388901b60f8161c191681555b5050505050600190811b01905550565b5f83516123fc818460208801611c55565b835190830190612410818360208801611c55565b01949350505050565b6001600160a01b03858116825284166020820152604081018390526080606082018190525f9061118d90830184611c77565b5f6020828403121561245b575f80fd5b8151610df781611c2556fe9b779b17422d0df92223018b32b4d1fa46e071723d6817e2486d003becc55f009c06c04824dfb4ebf41804d51120c24a2ab63d6230efe7b7bc5a199f837dd3ada2646970667358221220ec037c1c6c8472e4f65b7cb1447753607f521bd903ddff9d2c19fffd36b94fa564736f6c63430008180033",
  "linkReferences": {},
  "deployedLinkReferences": {}
}