{
  "_format": "hh-sol-artifact-1",
  "contractName": "AgentRegistry",
  "sourceName": "contracts/AgentRegistry.sol",
  "abi": [
    {
      "inputs": [
        {
          "internalType": "address",
          "name": "inftAddress",
          "type": "address"
        }
      ],
      "stateMutability": "nonpayable",
      "type": "constructor"
    },
    {
      "inputs": [
        {
          "internalType": "address",
          "name": "owner",
          "type": "address"
        }
      ],
      "name": "OwnableInvalidOwner",
      "type": "error"
    },
    {
      "inputs": [
        {
          "internalType": "address",
          "name": "account",
          "type": "address"
        }
      ],
      "name": "OwnableUnauthorizedAccount",
      "type": "error"
    },
    {
      "anonymous": false,
      "inputs": [
        {
          "indexed": true,
          "internalType": "uint256",
          "name": "agentId",
          "type": "uint256"
        },
        {
          "indexed": true,
          "internalType": "address",
          "name": "owner",
          "type": "address"
        },
        {
          "indexed": false,
          "internalType": "uint256",
          "name": "inftTokenId",
          "type": "uint256"
        }
      ],
      "name": "AgentRegistered",
      "type": "event"
    },
    {
      "anonymous": false,
      "inputs": [
        {
          "indexed": true,
          "internalType": "uint256",
          "name": "agentId",
          "type": "uint256"
        },
        {
          "indexed": false,
          "internalType": "enum IAgentRegistry.AgentStatus",
          "name": "status",
          "type": "uint8"
        }
      ],
      "name": "AgentStatusChanged",
      "type": "event"
    },
    {
      "anonymous": false,
      "inputs": [
        {
          "indexed": true,
          "internalType": "uint256",
          "name": "agentId",
          "type": "uint256"
        },
        {
          "indexed": false,
          "internalType": "bytes32",
          "name": "executionId",
          "type": "bytes32"
        }
      ],
      "name": "ExecutionTriggered",
      "type": "event"
    },
    {
      "anonymous": false,
      "inputs": [
        {
          "indexed": true,
          "internalType": "address",
          "name": "previousOwner",
          "type": "address"
        },
        {
          "indexed": true,
          "internalType": "address",
          "name": "newOwner",
          "type": "address"
        }
      ],
      "name": "OwnershipTransferred",
      "type": "event"
    },
    {
      "inputs": [
        {
          "internalType": "uint256",
          "name": "agentId",
          "type": "uint256"
        }
      ],
      "name": "getAgent",
      "outputs": [
        {
          "components": [
            {
              "internalType": "uint256",
              "name": "inftTokenId",
              "type": "uint256"
            },
            {
              "internalType": "address",
              "name": "owner",
              "type": "address"
            },
            {
              "internalType": "address",
              "name": "strategyExecutor",
              "type": "address"
            },
            {
              "internalType": "enum IAgentRegistry.AgentStatus",
              "name": "status",
              "type": "uint8"
            },
            {
              "internalType": "uint256",
              "name": "createdAt",
              "type": "uint256"
            },
            {
              "internalType": "bytes32",
              "name": "strategyHash",
              "type": "bytes32"
            }
          ],
          "internalType": "struct IAgentRegistry.Agent",
          "name": "",
          "type": "tuple"
        }
      ],
      "stateMutability": "view",
      "type": "function"
    },
    {
      "inputs": [
        {
          "internalType": "address",
          "name": "owner",
          "type": "address"
        }
      ],
      "name": "getOwnerAgents",
      "outputs": [
        {
          "internalType": "uint256[]",
          "name": "",
          "type": "uint256[]"
        }
      ],
      "stateMutability": "view",
      "type": "function"
    },
    {
      "inputs": [],
      "name": "inftContract",
      "outputs": [
        {
          "internalType": "contract IERC7857",
          "name": "",
          "type": "address"
        }
      ],
      "stateMutability": "view",
      "type": "function"
    },
    {
      "inputs": [],
      "name": "owner",
      "outputs": [
        {
          "internalType": "address",
          "name": "",
          "type": "address"
        }
      ],
      "stateMutability": "view",
      "type": "function"
    },
    {
      "inputs": [
        {
          "internalType": "uint256",
          "name": "inftTokenId",
          "type": "uint256"
        },
        {
          "internalType": "address",
          "name": "strategyExecutor",
          "type": "address"
        },
        {
          "internalType": "bytes32",
          "name": "strategyHash",
          "type": "bytes32"
        }
      ],
      "name": "registerAgent",
      "outputs": [
        {
          "internalType": "uint256",
          "name": "agentId",
          "type": "uint256"
        }
      ],
      "stateMutability": "nonpayable",
      "type": "function"
    },
    {
      "inputs": [],
      "name": "renounceOwnership",
      "outputs": [],
      "stateMutability": "nonpayable",
      "type": "function"
    },
    {
      "inputs": [
        {
          "internalType": "uint256",
          "name": "agentId",
          "type": "uint256"
        },
        {
          "internalType": "enum IAgentRegistry.AgentStatus",
          "name": "status",
          "type": "uint8"
        }
      ],
      "name": "setStatus",
      "outputs": [],
      "stateMutability": "nonpayable",
      "type": "function"
    },
    {
      "inputs": [
        {
          "internalType": "address",
          "name": "newOwner",
          "type": "address"
        }
      ],
      "name": "transferOwnership",
      "outputs": [],
      "stateMutability": "nonpayable",
      "type": "function"
    },
    {
      "inputs": [
        {
          "internalType": "uint256",
          "name": "agentId",
          "type": "uint256"
        },
        {
          "internalType": "bytes",
          "name": "executionParams",
          "type": "bytes"
        }
      ],
      "name": "triggerExecution",
      "outputs": [
        {
          "internalType": "bytes32",
          "name": "executionId",
          "type": "bytes32"
        }
      ],
      "stateMutability": "nonpayable",
      "type": "function"
    }
  ],
  "bytecode": "0x60a060405234801561000f575f80fd5b50604051610ba3380380610ba383398101604081905261002e916100bd565b338061005357604051631e4fbdf760e01b81525f600482015260240160405180910390fd5b61005c8161006e565b506001600160a01b03166080526100ea565b5f80546001600160a01b038381166001600160a01b0319831681178455604051919092169283917f8be0079c531659141344cd1fd0a4f28419497f9722a3daafe3b4186f6b6457e09190a35050565b5f602082840312156100cd575f80fd5b81516001600160a01b03811681146100e3575f80fd5b9392505050565b608051610a9b6101085f395f818160df01526105010152610a9b5ff3fe608060405234801561000f575f80fd5b5060043610610090575f3560e01c80637585840a116100635780637585840a146101235780638da5cb5b14610143578063d896dd6414610153578063eee90be314610166578063f2fde38b14610179575f80fd5b80632ae2f7f3146100945780632de5aaf7146100ba578063300303e9146100da578063715018a614610119575b5f80fd5b6100a76100a23660046107a7565b61018c565b6040519081526020015b60405180910390f35b6100cd6100c836600461081c565b6102d5565b6040516100b19190610867565b6101017f000000000000000000000000000000000000000000000000000000000000000081565b6040516001600160a01b0390911681526020016100b1565b610121610397565b005b6101366101313660046108d6565b6103aa565b6040516100b191906108f8565b5f546001600160a01b0316610101565b61012161016136600461093b565b610413565b6100a761017436600461096c565b6104df565b6101216101873660046108d6565b6106ef565b5f8381526002602052604081206001600282810154600160a01b900460ff16908111156101bb576101bb610833565b146102005760405162461bcd60e51b815260206004820152601060248201526f4167656e74206e6f742061637469766560801b60448201526064015b60405180910390fd5b60018101546001600160a01b0316331480610227575060028101546001600160a01b031633145b6102645760405162461bcd60e51b815260206004820152600e60248201526d139bdd08185d5d1a1bdc9a5e995960921b60448201526064016101f7565b8442858560405160200161027b94939291906109a1565b604051602081830303815290604052805190602001209150847f950219ab7ce391f656b9f5ffd143d31386d07dcec1e199715cb26ef57a5a8a4d836040516102c591815260200190565b60405180910390a2509392505050565b6040805160c0810182525f80825260208201819052918101829052606081018290526080810182905260a08101919091525f82815260026020818152604092839020835160c0810185528154815260018201546001600160a01b03908116938201939093528184015492831694810194909452916060840191600160a01b900460ff169081111561036857610368610833565b600281111561037957610379610833565b81526003820154602082015260049091015460409091015292915050565b61039f61072c565b6103a85f610758565b565b6001600160a01b0381165f9081526003602090815260409182902080548351818402810184019094528084526060939283018282801561040757602002820191905f5260205f20905b8154815260200190600101908083116103f3575b50505050509050919050565b5f828152600260205260409020600101546001600160a01b031633146104675760405162461bcd60e51b81526020600482015260096024820152682737ba1037bbb732b960b91b60448201526064016101f7565b5f82815260026020819052604090912081018054839260ff60a01b1990911690600160a01b90849081111561049e5761049e610833565b0217905550817fb9f5f3c9c3fed644472f1753bf6622a05e4d68ae1d4e193a7c930c43c51dd0e8826040516104d391906109c1565b60405180910390a25050565b604051630592953360e41b8152600481018490525f9081906001600160a01b037f00000000000000000000000000000000000000000000000000000000000000001690635929533090602401606060405180830381865afa158015610546573d5f803e3d5ffd5b505050506040513d601f19601f8201168201806040525081019061056a91906109d5565b60408101519091506001600160a01b03166105b65760405162461bcd60e51b815260206004820152600c60248201526b125b9d985b1a59081a53919560a21b60448201526064016101f7565b60018054905f6105c583610a41565b909155506040805160c0810182528781523360208083019182526001600160a01b038981168486019081525f6060860181815242608088015260a087018c90528882526002948590529690208551815593516001850180549184166001600160a01b0319928316179055905184840180549190931691811682178355955196985093959294929390926001600160a81b0319161790600160a01b90849081111561067157610671610833565b0217905550608082015160038281019190915560a090920151600490910155335f8181526020928352604080822080546001810182559083529184902090910185905551878152909184917f84a8073a2f017caf6bc071d3399adcd0aed001983f1e6e44bc40ef6c98be01a1910160405180910390a3509392505050565b6106f761072c565b6001600160a01b03811661072057604051631e4fbdf760e01b81525f60048201526024016101f7565b61072981610758565b50565b5f546001600160a01b031633146103a85760405163118cdaa760e01b81523360048201526024016101f7565b5f80546001600160a01b038381166001600160a01b0319831681178455604051919092169283917f8be0079c531659141344cd1fd0a4f28419497f9722a3daafe3b4186f6b6457e09190a35050565b5f805f604084860312156107b9575f80fd5b83359250602084013567ffffffffffffffff808211156107d7575f80fd5b818601915086601f8301126107ea575f80fd5b8135818111156107f8575f80fd5b876020828501011115610809575f80fd5b6020830194508093505050509250925092565b5f6020828403121561082c575f80fd5b5035919050565b634e487b7160e01b5f52602160045260245ffd5b6003811061086357634e487b7160e01b5f52602160045260245ffd5b9052565b815181526020808301516001600160a01b03908116918301919091526040808401519091169082015260608083015160c08301916108a790840182610847565b506080830151608083015260a083015160a083015292915050565b6001600160a01b0381168114610729575f80fd5b5f602082840312156108e6575f80fd5b81356108f1816108c2565b9392505050565b602080825282518282018190525f9190848201906040850190845b8181101561092f57835183529284019291840191600101610913565b50909695505050505050565b5f806040838503121561094c575f80fd5b82359150602083013560038110610961575f80fd5b809150509250929050565b5f805f6060848603121561097e575f80fd5b833592506020840135610990816108c2565b929592945050506040919091013590565b848152836020820152818360408301375f91016040019081529392505050565b602081016109cf8284610847565b92915050565b5f606082840312156109e5575f80fd5b6040516060810181811067ffffffffffffffff82111715610a1457634e487b7160e01b5f52604160045260245ffd5b806040525082518152602083015160208201526040830151610a35816108c2565b60408201529392505050565b5f60018201610a5e57634e487b7160e01b5f52601160045260245ffd5b506001019056fea264697066735822122078c776167a779a6d2ad9e3c26c96521adcf38f1710e9240dce20f43f5c16a49c64736f6c63430008180033",
  "linkReferences": {},
  "deployedLinkReferences": {}
}